:100000000C945C010C948D010C948D010C948D0169
:100010000C948D010C948D010C948D010C948D0128
:100020000C948D010C948D010C948D010C948D0118
:100030000C948D010C948D010C948D010C948D0108
:100040000C948D010C948D010C948D010C948D01F8
:100050000C948D010C948D010C948D010C94BA07B5
:100060000C948D010C948E080C9464080C948D01F2
:100070000C948D010C948D010C948D010C948D01C8
:100080000C948D010C948D010C948D010C948D01B8
:100090000C948D010C948D010C948D010C94C4086A
:1000A0000C948D010C948D010C948D010C948D0198
:1000B0000C948D010C948D010C948D010C948D0188
:1000C0000C948D010C948D010C948D010C948D0178
:1000D0000C948D010C948D010C942E080C94040842
:1000E0000C948D010C9464020C94F3020C94800225
:1000F0000C9438020C945B020C9451030C948A0209
:100100000C948E020C9457020C944F020C946802CB
:100110000C942F030C9484020C946E020C945302E2
:100120000C943E070C945E020C9420030C9444053E
:100130000C94E4090C943D020C9444060C94930333
:100140000C947C020C9443030C9476020C94E00310
:100150000C9472024E414E494E495459494E46CD77
:10016000CCCC3D0AD7233C17B7D13877CC2B32956E
:1001700095E6241FB14F0A000020410000C842004C
:10018000401C4620BCBE4CCA1B0E5AAEC59D740016
:10019000000A0B02090C0D0E080703040100000001
:1001A000000000000000000000000000000000004F
:1001B000000000000000000000000012111000000C
:1001C000000000000000000000000000000000002F
:1001D000000000000000000000000000000000001F
:1001E00000002200250028002B002E0031003400E2
:1001F00002010000050108010B010000210024009C
:1002000027002A002D003000330001010000040106
:1002100007010A0105050505070508080808020287
:1002200002020A0A08080404040401010101010190
:1002300001010303030303030303040707070C0C73
:100240000C0C0C0C0C0C020202020606060606063A
:1002500006060B0B0B0B0B0B0B0B0A050A0A050A08
:100260000A0404040A01021020200808102040108B
:10027000204080020102010804020101020408106A
:100280002040808040201008040201800402018088
:1002900040201008040201080402010102040810B1
:1002A0002040800102040810204080084004808023
:1002B000402010204010E40911241FBECFEFD1E2EE
:1002C000DEBFCDBF00E00CBF24E0AEE7B2E001C06E
:1002D0001D92A93AB207E1F712E0A0E0B2E0ECE328
:1002E000F0E200E00BBF02C007900D92AE37B107FD
:1002F000D9F711E0CCE5D1E000E006C02197010973
:10030000802FFE010E94690FCB35D10780E00807DE
:10031000A9F70E94F10A0C941C100C940000EF92B3
:10032000FF920F931F93CF93DF93EB01042F10E005
:10033000845A9F4F7C01D7018D919C91DC01ED91F6
:10034000FC910084F185E02D1995892B91F0F7013E
:1003500080819181DC01ED91FC910284F385E02D97
:1003600019958D3021F08883219611E0E4CF088320
:10037000FBCF1882812FDF91CF911F910F91FF90BA
:10038000EF90089590E0FC01EB59FD4F24918C5EB5
:100390009D4FFC018491882399F090E0880F991F6C
:1003A000FC01E650FE4FA591B491FC01E052FE4FD6
:1003B000859194918FB7F894EC91E22BEC938FBFD9
:1003C0000895FC01A089B18982E08C93A485B5854C
:1003D0001C92A685B7858FEC8C93108EA489B58965
:1003E00086E08C93A289B3898C9180618C93A289D9
:1003F000B3898C9188608C93A289B3898C91806831
:100400008C930288F389E02D80818F7D808308950D
:10041000282F30E0F901E157FE4F9491F901EB5993
:10042000FD4F44912C5E3D4FF9012491222309F4A4
:1004300035C0992311F191509231F8F4E92FF0E091
:100440008827EA5DFD4F8F4F0C94690F57025B02BE
:1004500038024F0253023D025E02640268026E02DD
:10046000720276027C0280023D0284028A028E02BF
:10047000809180008F7780938000E22FF0E0EE0F74
:10048000FF1FE052FE4FA591B4918FB7F894EC9105
:10049000611148C040954E234C938FBF08958091C1
:1004A00080008F7DE8CF80918000877FE4CF84B586
:1004B0008F7784BDE2CF84B58F7DFBCF8091B00074
:1004C0008F778093B000D9CF8091B0008F7DF9CF26
:1004D000809190008F7780939000CFCF8091900093
:1004E0008F7DF9CF80919000877FF5CF8091A0001C
:1004F0008F778093A000C1CF8091A0008F7DF9CF2E
:100500008091A000877FF5CF809120018F77809325
:100510002001B3CF809120018F7DF9CF8091200100
:10052000877FF5CF4E2BB8CF3FB7F8948091F0027C
:100530009091F102A091F202B091F30226B5A89B2E
:1005400005C02F3F19F00196A11DB11D3FBFBA2F65
:10055000A92F982F8827BC01CD01620F711D811D25
:10056000911D42E0660F771F881F991F4A95D1F7AA
:1005700008958F929F92AF92BF92CF92DF92EF92A7
:10058000FF926B017C010E9494024B015C01C1143B
:10059000D104E104F104B9F00E94940268197909C8
:1005A0008A099B09683E73408105910580F321E02B
:1005B000C21AD108E108F10888EE880E83E0981E7F
:1005C000A11CB11CE4CFFF90EF90DF90CF90BF90C3
:1005D000AF909F908F900895DC01ED91FC91019078
:1005E000F081E02D1994AF92BF92CF92DF92EF92FB
:1005F000FF920F931F93CF93DF936C017B018B01CD
:10060000040F151FEB015E01AE18BF08C017D1071C
:1006100059F06991D601ED91FC910190F081E02DA6
:10062000C6011995892B79F7C501DF91CF911F91EB
:100630000F91FF90EF90DF90CF90BF90AF90089513
:10064000FC01538D448D252F30E0842F90E0821BD8
:10065000930B541710F0CF96089501970895FC015D
:10066000918D828D981761F0A28DAE0FBF2FB11DB5
:100670005D968C91928D9F5F9F73928F90E008950D
:100680008FEF9FEF0895FC01918D828D981731F0C7
:10069000828DE80FF11D858D90E008958FEF9FEF1B
:1006A0000895FC01918D228D892F90E0805C9F4FF1
:1006B000821B91098F739927089580EA93E00E9425
:1006C000510321E0892B09F420E0822F089584EF63
:1006D00092E00E94510321E0892B09F420E0822F4F
:1006E0000895FC01A48DA80FB92FB11DA35ABF4FC7
:1006F0002C91848D90E001968F739927848FA68921
:10070000B7892C93A089B1898C91837080648C9374
:10071000938D848D981306C00288F389E02D808123
:100720008F7D80830895EF92FF920F931F93CF9355
:10073000DF93EC0181E0888F9B8D8C8D98131AC01C
:10074000E889F989808185FF15C09FB7F894EE8903
:10075000FF896083E889F989808183708064808360
:100760009FBF81E090E0DF91CF911F910F91FF90AB
:10077000EF900895F62E0B8D10E00F5F1F4F0F7353
:100780001127E02E8C8D8E110CC00FB607FCFACF0E
:10079000E889F989808185FFF5CFCE010E94710338
:1007A000F1CFEB8DEC0FFD2FF11DE35AFF4FF082DF
:1007B0009FB7F8940B8FEA89FB8980818062CFCF45
:1007C000CF93DF93EC01888D8823B9F0AA89BB8988
:1007D000E889F9898C9185FD03C0808186FD0DC073
:1007E0000FB607FCF7CF8C9185FFF2CF808185FF94
:1007F000EDCFCE010E947103E9CFDF91CF91089533
:1008000080E090E0892B29F00E94670381110E940B
:10081000000080E090E0892B49F080E090E0892B97
:1008200029F00E94000081110E94000080E090E009
:10083000892B49F080E090E0892B29F00E9400008C
:1008400081110E94000080E090E0892B29F00E9435
:100850005D0381110C94000008952091A502260FDC
:100860003327331F21323105ECF42091C902FC01FA
:1008700090E080E0243069F082E00895A091A50224
:100880002191AC014B575D4FA40FB52FB11D2C9397
:100890000196861798F38091A502680F6093A502D0
:1008A00080E0089581E0089508958FEF9FEF089507
:1008B0008FEF9FEF089580917E0290E09195819552
:1008C00091090895CF93DF93CB01EA01642F0E9431
:1008D0002D04CE01DF91CF910895CF93DF931F9226
:1008E000CDB7DEB7698361E0CE0101960E942D0489
:1008F00081E090E00F90DF91CF91089590E080E04B
:1009000008950F931F93CF93DF938C01C62F6170CF
:10091000FC01E25AFF4F80810E940802D0E0BE0134
:10092000759567956170F801E15AFF4F80810E94CB
:100930000802D595C795D595C7956C2F6170F801BC
:10094000E05AFF4F80810E94080262E070E080E080
:1009500090E0DF91CF911F910F910C94B9020E940A
:100960001710FB0101900020E9F73197AF01461BFA
:10097000570BDC01ED91FC910280F381E02D19947D
:100980008F929F92AF92BF92EF92FF920F931F931D
:10099000CF93DF93CDB7DEB7A1970FB6F894DEBF44
:1009A0000FBECDBF7C01FA01CB0119A2223008F4A1
:1009B0002AE08E010F5D1F4F822E912CB12CA12CAD
:1009C000BF01A50194010E94470FF901CA016A30D5
:1009D0000CF5605DD8016E938D01232B242B252B04
:1009E00079F790E080E0109721F0BD01C7010E94E7
:1009F000B104A1960FB6F894DEBF0FBECDBFDF9154
:100A0000CF911F910F91FF90EF90BF90AF909F906B
:100A10008F900895695CDECFCF92DF92EF92FF92C4
:100A20000F931F93CF93DF936B01770FEE08FF08AF
:100A3000F7FE1BC0EC016DE20E94EC028C01442722
:100A40005527BA014C195D096E097F092AE0CE01CC
:100A50000E94C004800F911FDF91CF911F910F91D1
:100A6000FF90EF90DF90CF9008952AE0B701A601A4
:100A7000DF91CF911F910F91FF90EF90DF90CF907A
:100A80000C94C0040C94B104CF92DF92EF92FF92C9
:100A90000F931F93CF93DF93DC0150962C915097C7
:100AA000222361F0EC018C010F591F4FF801808166
:100AB0009181009761F0019709F44FC0DF91CF91C8
:100AC0001F910F91FF90EF90DF90CF900895FD015F
:100AD000ED59FF4F80818F5F8530E8F5808360811D
:100AE000CE010E94810484EF92E00E94E0037E0127
:100AF000FCE5EF0EF11CD701CD90DC906AE172E0CD
:100B0000C6010E9442056CE172E0C6010E94B10478
:100B1000F70180819181DC01ED91FC910680F781E4
:100B2000E02D199581E090E0F80191838083FE012A
:100B3000EC59FF4F8C859D85AE85BF858083918361
:100B4000A283B38380E293E0A0E0B0E08C879D872E
:100B5000AE87BF87B3CF1082C2CFFD01EC59FF4FE4
:100B600080819181A281B3810097A105B10521F017
:100B70008C879D87AE87BF876E01F5E2CF0ED11CB3
:100B800040E0B601CE010E948F01FE01ED59FF4FFA
:100B90008823B9F0E080F12CC6010E94580C25E0B2
:100BA0002E9DA0012F9D500D1124C40FD51FCD5B8C
:100BB000DF4F688379838A839B83D8011D921C92BF
:100BC0007DCF808195E0899FC00DD11D1124CD5B23
:100BD000DF4F80E090E0AEEFB2EC88839983AA8388
:100BE000BB83EBCFFF920F931F93CF93DF938C01C7
:100BF000EB01F42E6FE172E0CE010E944205F80194
:100C000062817381CE010E940C0565E272E0CE0123
:100C10000E944205F8018681978161E4892B09F4DD
:100C200064E4CE010E94EC0261E372E0CE010E9416
:100C30004205F80144855585668577852AE0CE0111
:100C40000E94C00463E472E0CE010E944205F801F4
:100C5000608970E0CE010E940C0563E572E0CE0170
:100C60000E944205FF2051F06CE172E0CE01DF915D
:100C7000CF911F910F91FF900C94B104DF91CF9110
:100C80001F910F91FF9008954F925F926F927F9204
:100C90008F929F92AF92BF92CF92DF92EF92FF928C
:100CA0000F931F93CF93DF93EB018C010D5B1F4FCD
:100CB000812C912C540166E572E0CE010E94420520
:100CC0002AE0B501A401CE010E94C0046FE572E0E4
:100CD000CE010E944205F8016481CE010E94EC021F
:100CE00066E672E0CE010E944205F801C080D18024
:100CF000E280F380A7019601C701B6010E9412109D
:100D00006FE672E081111AC026013701E89477F886
:100D10002FEF3FEF4FE75FE7C301B2010E941210D0
:100D2000811133C02FEF3FEF4FE75FE7C301B201FF
:100D30000E94060E18164CF563E772E0CE010E9481
:100D4000B1046CE172E0CE010E94B104FFEF8F1A92
:100D50009F0AAF0ABF0A0B5F1F4F85E088169104F8
:100D6000A104B10409F0A7CFDF91CF911F910F919A
:100D7000FF90EF90DF90CF90BF90AF909F908F90BB
:100D80007F906F905F904F9008952FEF3FEF4FE768
:100D90005FE4C701B6010E940D1018161CF467E746
:100DA00072E0CCCF2FEF3FEF4FE75FECC701B6010A
:100DB0000E94060E87FDF3CF20E030E0A901C701B5
:100DC000B6010E94060E87FF08C06DE2CE010E94A8
:100DD000EC02F7FAF094F7F8F0942AE037ED43EAE2
:100DE0005BE3C701B6010E94720F2B013C010E9418
:100DF000DE0F6B017C010E940B0E9B01AC01C30155
:100E0000B2010E94710F2B013C012AE0B701A6013B
:100E1000CE010E94C0046EE2CE010E94EC0220E0EE
:100E200030E040E251E4C301B2010E946C0E2B019C
:100E30003C010E94DE0F6B01F12CE12C2AE0B7018E
:100E4000A601CE010E94C004C701B6010E940B0E8C
:100E50009B01AC01C301B2010E94710F20E030E0A0
:100E600040E251E40E946C0E0E94DE0FAB0170E084
:100E700060E02AE0CE010E94C00463CF41E064EF4D
:100E800072E08DE394E00C9444061F93CF93DF93BC
:100E900085ED8093BC008091810290918202A091A7
:100EA0008302B09184020796A11DB11D23E0B6957F
:100EB000A795979587952A95D1F72091BC0024FD99
:100EC00003C01092C90252C0409181025091820227
:100ED0006091830270918402452B462B472B69F366
:100EE0000097A105B10541F025E32A95F1F700002F
:100EF0000197A109B109E1CF80918002C1E0C093BF
:100F00007F02882399F1D091B8001091BA008091A6
:100F1000BC008A7B8093BC0060E084E10E940802F0
:100F200060E085E10E9408021092C902C093CB02E2
:100F30001092CA0261E084E10E94080261E085E14A
:100F40000E9408028091B9008E7F8093B900809141
:100F5000B9008D7F8093B90088E48093B80085E460
:100F60008093BC001093BA00D093B800DF91CF916A
:100F70001F9108951F920F920FB60F9211242F9375
:100F80003F938F939F93AF93BF93809191039091E1
:100F90009203A0919303B09194033091EF0223E068
:100FA000230F2D3758F50196A11DB11D2093EF0297
:100FB0008093910390939203A0939303B09394032F
:100FC0008091F0029091F102A091F202B091F302AF
:100FD0000196A11DB11D8093F0029093F102A093A0
:100FE000F202B093F302BF91AF919F918F913F9125
:100FF0002F910F900FBE0F901F90189526E8230F8A
:101000000296A11DB11DD2CF1F920F920FB60F9263
:1010100011240BB60F922F933F934F935F936F93CF
:101020007F938F939F93AF93BF93EF93FF9380EA48
:1010300093E00E947103FF91EF91BF91AF919F9157
:101040008F917F916F915F914F913F912F910F9071
:101050000BBE0F900FBE0F901F9018951F920F920E
:101060000FB60F9211240BB60F922F938F939F936D
:10107000EF93FF93E091B003F091B1038081E09191
:10108000B603F091B70382FD1DC090818091B90332
:101090008F5F8F732091BA03821741F0E091B903FB
:1010A000F0E0E056FC4F958F8093B903FF91EF91EC
:1010B0009F918F912F910F900BBE0F900FBE0F90AD
:1010C0001F9018958081F2CF1F920F920FB60F924A
:1010D00011240BB60F922F933F934F935F936F930F
:1010E0007F938F939F93AF93BF93EF93FF9384EF7F
:1010F00092E00E947103FF91EF91BF91AF919F9198
:101100008F917F916F915F914F913F912F910F90B0
:101110000BBE0F900FBE0F901F9018951F920F924D
:101120000FB60F9211240BB60F922F938F939F93AC
:10113000EF93FF93E0910403F09105038081E09128
:101140000A03F0910B0382FD1DC0908180910D0375
:101150008F5F8F7320910E03821741F0E0910D0392
:10116000F0E0EC50FD4F958F80930D03FF91EF91D0
:101170009F918F912F910F900BBE0F900FBE0F90EC
:101180001F9018958081F2CF1F920F920FB60F9289
:1011900011240BB60F922F933F934F935F936F934E
:1011A0007F938F939F93AF93BF93EF93FF93809120
:1011B000B900887F803609F44DC008F040C08832FD
:1011C00009F4A7C028F5803109F49BC0C8F488232E
:1011D00009F4F7C0883009F494C0FF91EF91BF91F2
:1011E000AF919F918F917F916F915F914F913F91BF
:1011F0002F910F900BBE0F900FBE0F901F90189560
:10120000883109F486C0803241F78093C80214C047
:10121000803409F49BC040F48033B9F38833E9F695
:101220008093C80285ECAEC0803509F483C0883550
:1012300009F494C0883489F60E944507CECF8839D6
:1012400009F48AC038F5883729F050F4883611F04F
:10125000803719F683E08093C9021092C70255C007
:10126000883809F479C0803919F0803809F0B5CF91
:101270008091C702803208F06FC0E091C70281E020
:101280008E0F8093C7028091BB00F0E0E955FD4FBF
:1012900080833BC0803B39F0D0F4803A09F477C0BA
:1012A000883A09F09ACF84E08093C9021092A6028E
:1012B0001092A502F0E0E0E019958091A50281115D
:1012C0000FC081E08093A5021092850209C0803C86
:1012D00009F4A8CF883C09F4A5CF883B09F07DCF5D
:1012E000E091A60281E08E0F8093A602F0E0EB571A
:1012F000FD4F80818093BB009091A6028091A50252
:1013000029C08091EE028093BB0085EC8093BC00E5
:1013100064CF9091ED028091EC02981758F5E0911E
:10132000ED0281E08E0F8093ED02F0E0E453FD4F7B
:101330008081E9CFE091ED0281E08E0F8093ED0294
:101340008091BB00F0E0E453FD4F80839091ED026B
:101350008091EC029817C8F285E8D8CFE091ED02B1
:1013600081E08E0F8093ED028091BB00F0E0E453AA
:10137000FD4F80838091CB0281115ECF81E080930D
:10138000CA0284EA8093BC001092C90226CF85EC81
:101390008093BC001092C9028091C702803230F461
:1013A000E091C702F0E0E955FD4F10826091C7025D
:1013B00070E087EA92E0F0E0E0E019951092C70251
:1013C0000CCF1092C80238CF0F931F93E0EAF3E0DE
:1013D0001382128208EE13E020E030E004831583CC
:1013E0002683378384E092E09183808345E351E054
:1013F0005587448744E351E05787468740E351E0EF
:10140000518B408B41E351E0538B428B42E351E0DF
:10141000558B448B46E351E0578B468B118E128ED1
:10142000138E148EA4EFB2E013961C921E921297A4
:1014300014960D931D932D933C93179711969C939F
:101440008E9385EC90E01D969C938E931C9784EC74
:1014500090E01F969C938E931E9780EC90E051969F
:101460009C938E93509781EC90E053969C938E932F
:10147000529782EC90E055969C938E93549786EC0D
:1014800090E057969C938E93569759961C92599735
:101490005A961C925A975B961C925B975C961C928C
:1014A000ADE3B4E015961C921E92149718961D9207
:1014B0001D921D921C921B9785E090E017969C93BD
:1014C0008E9316978FEF9FEF13969C938E931297A0
:1014D00086E192E011969C938E9340E050E06EEF8F
:1014E00072EC409380045093810460938204709363
:1014F000830440938504509386046093870470931B
:10150000880440938A0450938B0460938C047093F6
:101510008D0440938F0450939004609391047093D2
:1015200092044093940450939504609396047093AE
:101530009704F0939A04E093990487E080939B04C6
:1015400088E080939C0489E080939D0450961C92CF
:10155000509740E157E260E070E01C964D935D9338
:101560006D937C931F9710929F0410929E0410928B
:10157000A0041092A1041092A2041092A30410924D
:10158000A40485E4809384048FE48093890480E537
:1015900080938E0482E58093930484E4809398047E
:1015A000E5E9F3E0168217821086118612868EE333
:1015B00097E09583848300831183228333832FB73D
:1015C000F8948091910390919203A0919303B0912C
:1015D00094032FBF86839783A087B1871F910F91B4
:1015E0000895789484B5826084BD84B5816084BD9B
:1015F00085B5826085BD85B5816085BD80916E00B1
:10160000816080936E0010928100809181008260E1
:10161000809381008091810081608093810080911E
:1016200080008160809380008091B100846080930D
:10163000B1008091B00081608093B00080919100F2
:1016400082608093910080919100816080939100ED
:10165000809190008160809390008091A1008260D1
:101660008093A1008091A10081608093A10080916E
:10167000A00081608093A00080912101826080930E
:1016800021018091210181608093210180912001BD
:1016900081608093200180917A00846080937A0039
:1016A00080917A00826080937A0080917A008160D4
:1016B00080937A0080917A00806880937A001092FB
:1016C000C10084EF92E00E94E10180EA93E00E9471
:1016D000E10180919B040E94C20180919C040E94C0
:1016E000C20180919D040E94C20100E814E0C0E0A4
:1016F000812C912C8EEFA82E82ECB82E6C2F8DE3CE
:1017000094E00E94810484EF92E00E94E003E09064
:101710009904F0909A046AE172E0C7010E944205C0
:101720006CE172E0C7010E94B1048091990490912C
:101730009A04DC01ED91FC910680F781E02D19956A
:1017400060E273E080E090E00E94B90240E262E66D
:1017500074E08DE394E00E948F01809162048823FD
:1017600009F49BC06BE772E082E694E00E945C0C97
:101770000E94580CF8016083718382839383CF5F4A
:101780000B5F1F4FC53009F0B9CF88EB9BE0A0E09D
:10179000B0E08093490490934A04A0934B04B09323
:1017A0004C0481E080934D0480914D04882391F195
:1017B0002FB7F8948091910390919203A091930395
:1017C000B09194032FBF409145045091460460911D
:1017D0004704709148048C019D01041B150B260BD6
:1017E000370B4091490450914A0460914B04709129
:1017F0004C04401751076207730760F48093450457
:1018000090934604A0934704B09348048DE394E07A
:101810000E9444052FB7F894809191039091920310
:10182000A0919303B09194032FBF40919B035091DB
:101830009C0360919D0370919E03481759076A07A6
:101840007B0791F18C019D01041B150B260B370BB7
:10185000B901A80100919503109196032091970377
:1018600030919803401751076207730798F08093EF
:101870009B0390939C03A0939D03B0939E03E091E0
:101880009903F0919A03309729F080919F03811179
:1018900001C019950E94000487CFD8018D929D92B6
:1018A000AD92BC9213976BCF40E050E0BA01D2CF1B
:1018B000662777270C94870C45EA54E00C94600C5B
:1018C000FA01A191B081009719F41097E1F0CD01D0
:1018D000DC01CD010D90002011F4C00113C0FB010B
:1018E0002191222319F02015D9F7F3CFFB01219183
:1018F000201519F41E92119606C02223C1F70D90EF
:101900000020A1F7D001FA01A193B08308958F922E
:101910009F92AF92BF92CF92DF92EF92FF920F937E
:101920001F93CF93DF935C017B016115710519F063
:10193000DB018D939C9385010F5F1F4FF501D081D3
:101940008D2F90E00E94E50D6C01892BB9F5DD32F9
:10195000B9F50F5F1F4FD5011196DC91C1E0580119
:10196000F1E0AF1AB10843E050E06CE571E0C50169
:101970000E94EE0D892B69F5680182E0C80ED11C2A
:1019800045E050E067E571E0C6010E94EE0D892B4D
:1019900021F4680197E0C90ED11CE114F10419F09B
:1019A000D701CD92DC9260E070E080E89FEFC1113A
:1019B000FFC060E070E080E89FE7FAC05801BBCF4D
:1019C000DB3229F485010E5F1F4FF501D181C0E0A4
:1019D000C6CF43E050E064E571E0C5010E94EE0D22
:1019E000892BE9F0F80110E000E020E030E0A901E7
:1019F0005F01B0ED8B2E8D0E89E08815C8F19C2E0D
:101A0000689491F88C2F8870C2FF16C0811102C0B3
:101A10000F5F1F4F3196D501DC91C92DE9CFE1143D
:101A2000F10429F00E5F1F4FF7011183008360E07E
:101A300070E080EC9FE7BCC0882311F001501109D1
:101A4000A5E0B0E00E942D0F9B01AC01220F331FD7
:101A5000441F551F280D311D411D511D283999E97D
:101A60003907490799E15907A8F2C6609C2ED2CFE1
:101A7000AEEF8A1206C0C3FD3CC09C2E689493F85A
:101A8000C9CFDF7DD534A9F580818D3239F4C061AD
:101A9000DF011296818162E070E006C0DF018B32C7
:101AA000C1F3119661E070E080535D01A61AB70A98
:101AB0008A30F8F4E0E8CE16ECE0DE065CF4B6011D
:101AC000660F771F660F771FC60ED71ECC0CDD1C66
:101AD000C80ED11C5D01FFEFAF1ABF0A8C91805375
:101AE0008A30A8F1C4FF03C0D194C194D1080C0D71
:101AF0001D1DC1FF09C0E114F10431F081E0A81AF5
:101B0000B108D701AD92BC92CA01B9010E940B0E77
:101B1000C370C33009F490584B015C0120E030E001
:101B2000A9010E94060E882309F440C0CBE8D1E049
:101B300017FF05C0119501951109C3E7D1E06E01AA
:101B4000B8E1CB1AD10880E2E82EF12C0FC0D50104
:101B5000B1CFFE0125913591459154910E191F0980
:101B6000C501B4010E946C0E4B015C01D501C4019A
:101B70000E151F0574F72497F594E794CC16DD062F
:101B8000A9F78A2F880F8B2F881F8F3F49F020E0FD
:101B900030E0A901C501B4010E94060E811106C002
:101BA00082E290E09093A8048093A704C501B40159
:101BB000DF91CF911F910F91FF90EF90DF90CF9029
:101BC000BF90AF909F908F90089591110C94D90E73
:101BD000803219F089508550C8F70895FB01DC0167
:101BE0004150504088F08D9181341CF08B350CF4BD
:101BF000805E659161341CF06B350CF4605E861B71
:101C0000611171F3990B0895881BFCCF0E94480E57
:101C100008F481E00895E89409C097FB3EF490959C
:101C20008095709561957F4F8F4F9F4F9923A9F0B5
:101C3000F92F96E9BB279395F69587957795679544
:101C4000B795F111F8CFFAF4BB0F11F460FF1BC088
:101C50006F5F7F4F8F4F9F4F16C0882311F096E91B
:101C600011C0772321F09EE8872F762F05C06623C9
:101C700071F096E8862F70E060E02AF09A95660F82
:101C8000771F881FDAF7880F9695879597F908953B
:101C9000990F0008550FAA0BE0E8FEEF161617067D
:101CA000E807F907C0F012161306E407F50798F0E5
:101CB000621B730B840B950B39F40A2661F0232BFE
:101CC000242B252B21F408950A2609F4A140A6957A
:101CD0008FEF811D811D08950E947F0E0C94F30EDD
:101CE0000E94E50E38F00E94EC0E20F0952311F0D2
:101CF0000C94DC0E0C94E20E11240C94270F0E941D
:101D0000040F70F3959FC1F3950F50E0551F629F2C
:101D1000F001729FBB27F00DB11D639FAA27F00D44
:101D2000B11DAA1F649F6627B00DA11D661F829F6B
:101D30002227B00DA11D621F739FB00DA11D621F50
:101D4000839FA00D611D221F749F3327A00D611D6D
:101D5000231F849F600D211D822F762F6A2F11244F
:101D60009F5750409AF0F1F088234AF0EE0FFF1F82
:101D7000BB1F661F771F881F91505040A9F79E3FD9
:101D8000510580F00C94DC0E0C94270F5F3FE4F3B8
:101D9000983ED4F3869577956795B795F795E7952F
:101DA0009F5FC1F7FE2B880F911D9695879597F938
:101DB000089599278827089597F99F6780E870E02C
:101DC00060E008959FEF80EC089500240A941616B1
:101DD000170618060906089500240A941216130619
:101DE000140605060895092E0394000C11F48823A7
:101DF00052F0BB0F40F4BF2B11F460FF04C06F5FC3
:101E00007F4F8F4F9F4F089557FD9058440F551F98
:101E100059F05F3F71F04795880F97FB991F61F06C
:101E20009F3F79F087950895121613061406551FE3
:101E3000F2CF4695F1DF08C0161617061806991F4F
:101E4000F1CF86957105610508940895E894BB2744
:101E500066277727CB0197F908950E94380FA59F31
:101E6000900DB49F900DA49F800D911D1124089595
:101E7000A29FB001B39FC001A39F700D811D1124CB
:101E8000911DB29F700D811D1124911D0895A1E235
:101E90001A2EAA1BBB1BFD010DC0AA1FBB1FEE1FE4
:101EA000FF1FA217B307E407F50720F0A21BB30B2F
:101EB000E40BF50B661F771F881F991F1A9469F7AB
:101EC00060957095809590959B01AC01BD01CF0107
:101ED0000895EE0FFF1F881F8BBF0790F691E02D2E
:101EE00019945058BB27AA270E94890F0C94F30E0F
:101EF0000E94E50E38F00E94EC0E20F039F49F3F6E
:101F000019F426F40C94E20E0EF4E095E7FB0C9421
:101F1000DC0EE92F0E94040F58F3BA17620773070B
:101F20008407950720F079F4A6F50C94260F0EF49B
:101F3000E0950B2EBA2FA02D0B01B90190010C01D9
:101F4000CA01A0011124FF27591B99F0593F50F4F1
:101F5000503E68F11A16F040A22F232F342F442749
:101F6000585FF3CF469537952795A795F040539541
:101F7000C9F77EF41F16BA0B620B730B840BBAF011
:101F80009150A1F0FF0FBB1F661F771F881FC2F77C
:101F90000EC0BA0F621F731F841F48F48795779590
:101FA0006795B795F7959E3F08F0B0CF9395880F4A
:101FB00008F09927EE0F9795879508950E940C0FCA
:101FC00088F09F5798F0B92F9927B751B0F0E1F0FA
:101FD000660F771F881F991F1AF0BA95C9F714C0AA
:101FE000B13091F00E94260FB1E008950C94260FB5
:101FF000672F782F8827B85F39F0B93FCCF38695E3
:1020000077956795B395D9F73EF49095809570953F
:1020100061957F4F8F4F9F4F08950E94480E08F49F
:102020008FEF08950E94480E880B990B089581E068
:0C20300090E0F8940C941C10F894FFCF82
:10203C00000000009303F3022003E00351032F037D
:10204C004303000000004406440552000D0A007BC7
:10205C0070696E3A0020696E707574547970653AC7
:10206C000020706F6C6C696E67496E746572766176
:10207C006C3A00706F6C6C696E67456E61626C6572
:10208C00643A00207D006368616E6E656C3A0020D6
:10209C00747970653A00206361636865643A006E18
:0E20AC00616E00696E66006F766600200000AF
:00000001FF
